:020000040000FA
:040000008AEF3FF054
:107F1400000197EF3FF0000E8B6E000E826E000E94
:107F24000F013A6F0F0E946E12008DEC3FF08B8CA4
:107F34008B9E82A0A0EF3FF0A2EF3FF0A4EF3FF0B2
:107F4400EFEF3FF082A6A9EF3FF0ABEF3FF099EFE0
:107F54003FF082A2B0EF3FF0B2EF3FF099EF3FF075
:107F640082B0B7EF3FF0B9EF3FF099EF3FF08B8C61
:107F74008B8E82B4C0EF3FF0C2EF3FF0D4EF3FF0FE
:107F840082B6C7EF3FF0C9EF3FF0CBEF3FF0D4EF3D
:107F94003FF082B2D0EF3FF0D2EF3FF0B9EF3FF0C5
:107FA400DDEF3FF08B8C8B9E82A0DBEF3FF0DDEFAB
:107FB4003FF0D4EF3FF08B9C8B8E82B2E4EF3FF026
:107FC400E6EF3FF0DDEF3FF082B0EBEF3FF0EDEF97
:107FD4003FF0DDEF3FF099EF3FF08B9C8B8E0B0E63
:107FE400026E260E016E5E0EE82EFED7012EFCD721
:0C7FF400022EFAD799EF3FF000EF00F0EA
:020000040020DA
:08000000FFFFFFFFFFFFFFFF00
:020000040030CA
:0E000000FF231F3CFFBC81FF0FC00FE00F402D
:00000001FF
